S00F00005072656C6162342E737265638B
S11300000C9434000C943E000C943E000C943E007E
S11300100C943E000C943E000C943E000C943E0064
S11300200C943E000C943E000C943E000C943E0054
S11300300C943E000C943E000C943E000C943E0044
S11300400C943E000C943E000C943E000C943E0034
S11300500C943E000C943E000C943E000C943E0024
S11300600C943E000C943E0011241FBECFEFD8E048
S1130070DEBFCDBF0E9440000C946E000C940000C3
S113008084B1877F84B985B1886085B984B18F7E56
S113009084B985B1806185B98FEF8AB980E01B99F5
S11300A00DC08F3F11F08F5F8BB92FEF33EC99E0C8
S11300B0215030409040E1F700C000001C99EFCF80
S11300C0882311F081508BB92FEF33EC99E0215044
S11300D030409040E1F700C00000E1CFF894FFCF3A
S9030000FC
